:0300000002004CAF
:200008000000E2FBEAF2802C0000E0FBEAF08024E6B50202EBF62200E2B50202EBF22200DE
:20002800E0B50202EBF02230F6E0A88220F5D3EAC6F582228B822230F6E6A88220F5D980EE
:01004800CFE8
:0300A5000200490D
:030049000200D2E0
:2000A800C0088581080581AF82A80808A607A808088607900081E0FDA3E0FE7C00ED2FF505
:2000C80082EE3CF5831581D008227540FD9000817434F07412A3F0756080756100D200856E
:0C00E800E0821200A8AE828E5180F4224B
:06007B00E478FFF6D8FD59
:200059007900E94400601B7A009000F8780175A000E493F2A308B8000205A0D9F4DAF27555
:02007900A0FFE6
:200081007800E84400600A790175A000E4F309D8FC7800E84400600C7900900001E4F0A37D
:0400A100D8FCD9FAB4
:0D004C007581201200F4E582600302004976
:0400F40075820022EF
:00000001FF
