:0300000002004CAF
:200008000000E2FBEAF2802C0000E0FBEAF08024E6B50202EBF62200E2B50202EBF22200DE
:20002800E0B50202EBF02230F6E0A88220F5D3EAC6F582228B822230F6E6A88220F5D980EE
:01004800CFE8
:0300A5000200490D
:030049000200C4EE
:2000A800E53004F530AF30900020E0FDA3E0FE7C00900020EF2DF0EC3EA3F02275300090C1
:0C00C8000020E4F0A3F01200A880FB224E
:06007B00E478FFF6D8FD59
:200059007900E94400601B7A009000D8780175A000E493F2A308B8000205A0D9F4DAF27575
:02007900A0FFE6
:200081007800E84400600A790175A000E4F309D8FC7800E84400600C7900900001E4F0A37D
:0400A100D8FCD9FAB4
:0D004C007581071200D4E5826003020049AF
:0400D400758200220F
:00000001FF
